{
  "contractName": "TestContractNewestUpdated",
  "abi": [
    {
      "inputs": [
        {
          "internalType": "uint256[]",
          "name": "first",
          "type": "uint256[]"
        }
      ],
      "name": "anArr",
      "outputs": [],
      "stateMutability": "nonpayable",
      "type": "function"
    },
    {
      "inputs": [
        {
          "internalType": "uint256[]",
          "name": "first",
          "type": "uint256[]"
        },
        {
          "internalType": "uint256[]",
          "name": "second",
          "type": "uint256[]"
        }
      ],
      "name": "twoArrs",
      "outputs": [],
      "stateMutability": "nonpayable",
      "type": "function"
    },
    {
      "inputs": [
        {
          "internalType": "address[]",
          "name": "first",
          "type": "address[]"
        }
      ],
      "name": "addressArr",
      "outputs": [],
      "stateMutability": "nonpayable",
      "type": "function"
    },
    {
      "inputs": [
        {
          "internalType": "uint256[][]",
          "name": "first",
          "type": "uint256[][]"
        }
      ],
      "name": "nestedArr0",
      "outputs": [],
      "stateMutability": "nonpayable",
      "type": "function"
    },
    {
      "inputs": [
        {
          "internalType": "uint256[][5]",
          "name": "first",
          "type": "uint256[][5]"
        }
      ],
      "name": "nestedArr1",
      "outputs": [],
      "stateMutability": "nonpayable",
      "type": "function"
    },
    {
      "inputs": [
        {
          "internalType": "uint256[4][]",
          "name": "first",
          "type": "uint256[4][]"
        }
      ],
      "name": "nestedArr2",
      "outputs": [],
      "stateMutability": "nonpayable",
      "type": "function"
    },
    {
      "inputs": [
        {
          "internalType": "uint256[3][3]",
          "name": "first",
          "type": "uint256[3][3]"
        }
      ],
      "name": "nestedArr3",
      "outputs": [],
      "stateMutability": "nonpayable",
      "type": "function"
    },
    {
      "inputs": [
        {
          "internalType": "uint256[3][3]",
          "name": "first",
          "type": "uint256[3][3]"
        },
        {
          "internalType": "string",
          "name": "_bundleHash",
          "type": "string"
        }
      ],
      "name": "nestedArr4",
      "outputs": [],
      "stateMutability": "nonpayable",
      "type": "function"
    },
    {
      "inputs": [
        {
          "components": [
            {
              "internalType": "string",
              "name": "name",
              "type": "string"
            },
            {
              "internalType": "uint256",
              "name": "age",
              "type": "uint256"
            },
            {
              "components": [
                {
                  "internalType": "string",
                  "name": "street",
                  "type": "string"
                },
                {
                  "internalType": "uint256",
                  "name": "number",
                  "type": "uint256"
                },
                {
                  "internalType": "string",
                  "name": "town",
                  "type": "string"
                }
              ],
              "internalType": "struct TestContractNewestUpdated.Addr",
              "name": "addr",
              "type": "tuple"
            }
          ],
          "internalType": "struct TestContractNewestUpdated.Person[]",
          "name": "people",
          "type": "tuple[]"
        },
        {
          "internalType": "bool",
          "name": "test_bool",
          "type": "bool"
        }
      ],
      "name": "structTest1",
      "outputs": [],
      "stateMutability": "nonpayable",
      "type": "function"
    },
    {
      "inputs": [
        {
          "components": [
            {
              "internalType": "string",
              "name": "name",
              "type": "string"
            },
            {
              "internalType": "uint256",
              "name": "age",
              "type": "uint256"
            },
            {
              "components": [
                {
                  "internalType": "string",
                  "name": "street",
                  "type": "string"
                },
                {
                  "internalType": "uint256",
                  "name": "number",
                  "type": "uint256"
                },
                {
                  "internalType": "string",
                  "name": "town",
                  "type": "string"
                }
              ],
              "internalType": "struct TestContractNewestUpdated.Addr",
              "name": "addr",
              "type": "tuple"
            }
          ],
          "internalType": "struct TestContractNewestUpdated.Person",
          "name": "person",
          "type": "tuple"
        },
        {
          "internalType": "bool",
          "name": "test_bool",
          "type": "bool"
        }
      ],
      "name": "structTest2",
      "outputs": [],
      "stateMutability": "nonpayable",
      "type": "function"
    },
    {
      "inputs": [
        {
          "components": [
            {
              "internalType": "string",
              "name": "name",
              "type": "string"
            },
            {
              "internalType": "uint256",
              "name": "age",
              "type": "uint256"
            },
            {
              "components": [
                {
                  "internalType": "string",
                  "name": "street",
                  "type": "string"
                },
                {
                  "internalType": "uint256",
                  "name": "number",
                  "type": "uint256"
                },
                {
                  "internalType": "string",
                  "name": "town",
                  "type": "string"
                }
              ],
              "internalType": "struct TestContractNewestUpdated.Addr[]",
              "name": "addrs",
              "type": "tuple[]"
            }
          ],
          "internalType": "struct TestContractNewestUpdated.AddressPerson",
          "name": "person",
          "type": "tuple"
        },
        {
          "internalType": "string",
          "name": "_bundleHash",
          "type": "string"
        }
      ],
      "name": "structTest3",
      "outputs": [],
      "stateMutability": "nonpayable",
      "type": "function"
    },
    {
      "inputs": [
        {
          "components": [
            {
              "internalType": "string",
              "name": "name",
              "type": "string"
            },
            {
              "internalType": "uint256",
              "name": "age",
              "type": "uint256"
            },
            {
              "components": [
                {
                  "internalType": "string",
                  "name": "street",
                  "type": "string"
                },
                {
                  "internalType": "uint256",
                  "name": "number",
                  "type": "uint256"
                },
                {
                  "internalType": "string",
                  "name": "town",
                  "type": "string"
                }
              ],
              "internalType": "struct TestContractNewestUpdated.Addr[]",
              "name": "addrs",
              "type": "tuple[]"
            }
          ],
          "internalType": "struct TestContractNewestUpdated.AddressPerson[]",
          "name": "persons",
          "type": "tuple[]"
        },
        {
          "internalType": "string",
          "name": "_bundleHash",
          "type": "string"
        }
      ],
      "name": "structTest4",
      "outputs": [],
      "stateMutability": "nonpayable",
      "type": "function"
    },
    {
      "inputs": [
        {
          "components": [
            {
              "internalType": "string",
              "name": "name",
              "type": "string"
            },
            {
              "internalType": "uint256",
              "name": "age",
              "type": "uint256"
            },
            {
              "components": [
                {
                  "internalType": "string",
                  "name": "street",
                  "type": "string"
                },
                {
                  "internalType": "uint256",
                  "name": "number",
                  "type": "uint256"
                },
                {
                  "internalType": "string",
                  "name": "town",
                  "type": "string"
                }
              ],
              "internalType": "struct TestContractNewestUpdated.Addr",
              "name": "addr",
              "type": "tuple"
            }
          ],
          "internalType": "struct TestContractNewestUpdated.Person",
          "name": "person",
          "type": "tuple"
        },
        {
          "internalType": "string",
          "name": "_bundleHash",
          "type": "string"
        }
      ],
      "name": "structTest5",
      "outputs": [],
      "stateMutability": "nonpayable",
      "type": "function"
    },
    {
      "inputs": [],
      "name": "nowT",
      "outputs": [],
      "stateMutability": "nonpayable",
      "type": "function"
    },
    {
      "inputs": [
        {
          "components": [
            {
              "internalType": "string",
              "name": "name",
              "type": "string"
            },
            {
              "internalType": "uint256",
              "name": "age",
              "type": "uint256"
            },
            {
              "components": [
                {
                  "internalType": "string",
                  "name": "street",
                  "type": "string"
                },
                {
                  "internalType": "uint256",
                  "name": "number",
                  "type": "uint256"
                },
                {
                  "internalType": "string",
                  "name": "town",
                  "type": "string"
                }
              ],
              "internalType": "struct TestContractNewestUpdated.Addr",
              "name": "addr",
              "type": "tuple"
            }
          ],
          "internalType": "struct TestContractNewestUpdated.Person",
          "name": "person",
          "type": "tuple"
        },
        {
          "internalType": "string",
          "name": "_bundleHash",
          "type": "string"
        },
        {
          "internalType": "string",
          "name": "_bundlePath",
          "type": "string"
        }
      ],
      "name": "clientContainer",
      "outputs": [],
      "stateMutability": "nonpayable",
      "type": "function"
    }
  ],
  "bytecode": "0x608060405234801561001057600080fd5b506114e7806100206000396000f3fe608060405234801561001057600080fd5b50600436106100f55760003560e01c8063a061b36911610097578063db3ebcf911610066578063db3ebcf91461021c578063e1bce28c14610238578063fc05f18b14610254578063ff9f51ad14610270576100f5565b8063a061b369146101ac578063ba28a2a8146101c8578063cd9d4f10146101e4578063d312a9d814610200576100f5565b80634243fe5c116100d35780634243fe5c1461013c57806342e9591d1461015857806347fb8c0a146101745780636b1a62f014610190576100f5565b80632175067f146100fa57806326e9a645146101045780633ed622fb14610120575b600080fd5b61010261028c565b005b61011e60048036038101906101199190610679565b61028e565b005b61013a60048036038101906101359190610853565b610292565b005b61015660048036038101906101519190610881565b610295565b005b610172600480360381019061016d91906109c0565b610299565b005b61018e60048036038101906101899190610ad4565b61029d565b005b6101aa60048036038101906101a59190610c0f565b6102a1565b005b6101c660048036038101906101c19190610d79565b6102a4565b005b6101e260048036038101906101dd9190610ea3565b6102a7565b005b6101fe60048036038101906101f99190611060565b6102aa565b005b61021a600480360381019061021591906110e1565b6102ad565b005b6102366004803603810190610231919061113d565b6102b1565b005b610252600480360381019061024d91906112c5565b6102b6565b005b61026e60048036038101906102699190611321565b6102ba565b005b61028a60048036038101906102859190611468565b6102be565b005b565b5050565b50565b5050565b5050565b5050565b50565b50565b50565b50565b5050565b505050565b5050565b5050565b50565b6000604051905090565b600080fd5b600080fd5b600080fd5b6000601f19601f8301169050919050565b7f4e487b7100000000000000000000000000000000000000000000000000000000600052604160045260246000fd5b610323826102da565b810181811067ffffffffffffffff82111715610342576103416102eb565b5b80604052505050565b60006103556102c1565b9050610361828261031a565b919050565b600080fd5b600080fd5b600080fd5b600067ffffffffffffffff8211156103905761038f6102eb565b5b610399826102da565b9050602081019050919050565b82818337600083830152505050565b60006103c86103c384610375565b61034b565b9050828152602081018484840111156103e4576103e3610370565b5b6103ef8482856103a6565b509392505050565b600082601f83011261040c5761040b61036b565b5b813561041c8482602086016103b5565b91505092915050565b6000819050919050565b61043881610425565b811461044357600080fd5b50565b6000813590506104558161042f565b92915050565b600067ffffffffffffffff821115610476576104756102eb565b5b602082029050602081019050919050565b600080fd5b6000606082840312156104a2576104a16102d5565b5b6104ac606061034b565b9050600082013567ffffffffffffffff8111156104cc576104cb610366565b5b6104d8848285016103f7565b60008301525060206104ec84828501610446565b602083015250604082013567ffffffffffffffff8111156105105761050f610366565b5b61051c848285016103f7565b60408301525092915050565b600061053b6105368461045b565b61034b565b9050808382526020820190506020840283018581111561055e5761055d610487565b5b835b818110156105a557803567ffffffffffffffff8111156105835761058261036b565b5b808601610590898261048c565b85526020850194505050602081019050610560565b5050509392505050565b600082601f8301126105c4576105c361036b565b5b81356105d4848260208601610528565b91505092915050565b6000606082840312156105f3576105f26102d5565b5b6105fd606061034b565b9050600082013567ffffffffffffffff81111561061d5761061c610366565b5b610629848285016103f7565b600083015250602061063d84828501610446565b602083015250604082013567ffffffffffffffff81111561066157610660610366565b5b61066d848285016105af565b60408301525092915050565b600080604083850312156106905761068f6102cb565b5b600083013567ffffffffffffffff8111156106ae576106ad6102d0565b5b6106ba858286016105dd565b925050602083013567ffffffffffffffff8111156106db576106da6102d0565b5b6106e7858286016103f7565b9150509250929050565b600067ffffffffffffffff82111561070c5761070b6102eb565b5b602082029050919050565b600067ffffffffffffffff821115610732576107316102eb565b5b602082029050919050565b600061075061074b84610717565b61034b565b9050806020840283018581111561076a57610769610487565b5b835b81811015610793578061077f8882610446565b84526020840193505060208101905061076c565b5050509392505050565b600082601f8301126107b2576107b161036b565b5b60036107bf84828561073d565b91505092915050565b60006107db6107d6846106f1565b61034b565b905080606084028301858111156107f5576107f4610487565b5b835b8181101561081e578061080a888261079d565b8452602084019350506060810190506107f7565b5050509392505050565b600082601f83011261083d5761083c61036b565b5b600361084a8482856107c8565b91505092915050565b6000610120828403121561086a576108696102cb565b5b600061087884828501610828565b91505092915050565b6000806101408385031215610899576108986102cb565b5b60006108a785828601610828565b92505061012083013567ffffffffffffffff8111156108c9576108c86102d0565b5b6108d5858286016103f7565b9150509250929050565b600067ffffffffffffffff8211156108fa576108f96102eb565b5b602082029050602081019050919050565b600061091e610919846108df565b61034b565b9050808382526020820190506020840283018581111561094157610940610487565b5b835b8181101561098857803567ffffffffffffffff8111156109665761096561036b565b5b80860161097389826105dd565b85526020850194505050602081019050610943565b5050509392505050565b600082601f8301126109a7576109a661036b565b5b81356109b784826020860161090b565b91505092915050565b600080604083850312156109d7576109d66102cb565b5b600083013567ffffffffffffffff8111156109f5576109f46102d0565b5b610a0185828601610992565b925050602083013567ffffffffffffffff811115610a2257610a216102d0565b5b610a2e858286016103f7565b9150509250929050565b600060608284031215610a4e57610a4d6102d5565b5b610a58606061034b565b9050600082013567ffffffffffffffff811115610a7857610a77610366565b5b610a84848285016103f7565b6000830152506020610a9884828501610446565b602083015250604082013567ffffffffffffffff811115610abc57610abb610366565b5b610ac88482850161048c565b60408301525092915050565b60008060408385031215610aeb57610aea6102cb565b5b600083013567ffffffffffffffff811115610b0957610b086102d0565b5b610b1585828601610a38565b925050602083013567ffffffffffffffff811115610b3657610b356102d0565b5b610b42858286016103f7565b9150509250929050565b600067ffffffffffffffff821115610b6757610b666102eb565b5b602082029050602081019050919050565b6000610b8b610b8684610b4c565b61034b565b90508083825260208201905060208402830185811115610bae57610bad610487565b5b835b81811015610bd75780610bc38882610446565b845260208401935050602081019050610bb0565b5050509392505050565b600082601f830112610bf657610bf561036b565b5b8135610c06848260208601610b78565b91505092915050565b600060208284031215610c2557610c246102cb565b5b600082013567ffffffffffffffff811115610c4357610c426102d0565b5b610c4f84828501610be1565b91505092915050565b600067ffffffffffffffff821115610c7357610c726102eb565b5b602082029050602081019050919050565b600073ffffffffffffffffffffffffffffffffffffffff82169050919050565b6000610caf82610c84565b9050919050565b610cbf81610ca4565b8114610cca57600080fd5b50565b600081359050610cdc81610cb6565b92915050565b6000610cf5610cf084610c58565b61034b565b90508083825260208201905060208402830185811115610d1857610d17610487565b5b835b81811015610d415780610d2d8882610ccd565b845260208401935050602081019050610d1a565b5050509392505050565b600082601f830112610d6057610d5f61036b565b5b8135610d70848260208601610ce2565b91505092915050565b600060208284031215610d8f57610d8e6102cb565b5b600082013567ffffffffffffffff811115610dad57610dac6102d0565b5b610db984828501610d4b565b91505092915050565b600067ffffffffffffffff821115610ddd57610ddc6102eb565b5b602082029050602081019050919050565b6000610e01610dfc84610dc2565b61034b565b90508083825260208201905060208402830185811115610e2457610e23610487565b5b835b81811015610e6b57803567ffffffffffffffff811115610e4957610e4861036b565b5b808601610e568982610be1565b85526020850194505050602081019050610e26565b5050509392505050565b600082601f830112610e8a57610e8961036b565b5b8135610e9a848260208601610dee565b91505092915050565b600060208284031215610eb957610eb86102cb565b5b600082013567ffffffffffffffff811115610ed757610ed66102d0565b5b610ee384828501610e75565b91505092915050565b600067ffffffffffffffff821115610f0757610f066102eb565b5b602082029050602081019050919050565b600067ffffffffffffffff821115610f3357610f326102eb565b5b602082029050919050565b6000610f51610f4c84610f18565b61034b565b90508060208402830185811115610f6b57610f6a610487565b5b835b81811015610f945780610f808882610446565b845260208401935050602081019050610f6d565b5050509392505050565b600082601f830112610fb357610fb261036b565b5b6004610fc0848285610f3e565b91505092915050565b6000610fdc610fd784610eec565b61034b565b90508083825260208201905060808402830185811115610fff57610ffe610487565b5b835b8181101561102857806110148882610f9e565b845260208401935050608081019050611001565b5050509392505050565b600082601f8301126110475761104661036b565b5b8135611057848260208601610fc9565b91505092915050565b600060208284031215611076576110756102cb565b5b600082013567ffffffffffffffff811115611094576110936102d0565b5b6110a084828501611032565b91505092915050565b60008115159050919050565b6110be816110a9565b81146110c957600080fd5b50565b6000813590506110db816110b5565b92915050565b600080604083850312156110f8576110f76102cb565b5b600083013567ffffffffffffffff811115611116576111156102d0565b5b61112285828601610a38565b9250506020611133858286016110cc565b9150509250929050565b600080600060608486031215611156576111556102cb565b5b600084013567ffffffffffffffff811115611174576111736102d0565b5b61118086828701610a38565b935050602084013567ffffffffffffffff8111156111a1576111a06102d0565b5b6111ad868287016103f7565b925050604084013567ffffffffffffffff8111156111ce576111cd6102d0565b5b6111da868287016103f7565b9150509250925092565b600067ffffffffffffffff8211156111ff576111fe6102eb565b5b602082029050602081019050919050565b600061122361121e846111e4565b61034b565b9050808382526020820190506020840283018581111561124657611245610487565b5b835b8181101561128d57803567ffffffffffffffff81111561126b5761126a61036b565b5b8086016112788982610a38565b85526020850194505050602081019050611248565b5050509392505050565b600082601f8301126112ac576112ab61036b565b5b81356112bc848260208601611210565b91505092915050565b600080604083850312156112dc576112db6102cb565b5b600083013567ffffffffffffffff8111156112fa576112f96102d0565b5b61130685828601611297565b9250506020611317858286016110cc565b9150509250929050565b60008060408385031215611338576113376102cb565b5b600083013567ffffffffffffffff811115611356576113556102d0565b5b61136285828601610be1565b925050602083013567ffffffffffffffff811115611383576113826102d0565b5b61138f85828601610be1565b9150509250929050565b600067ffffffffffffffff8211156113b4576113b36102eb565b5b602082029050919050565b60006113d26113cd84611399565b61034b565b905080602084028301858111156113ec576113eb610487565b5b835b8181101561143357803567ffffffffffffffff8111156114115761141061036b565b5b80860161141e8982610be1565b855260208501945050506020810190506113ee565b5050509392505050565b600082601f8301126114525761145161036b565b5b600561145f8482856113bf565b91505092915050565b60006020828403121561147e5761147d6102cb565b5b600082013567ffffffffffffffff81111561149c5761149b6102d0565b5b6114a88482850161143d565b9150509291505056fea2646970667358221220475dee12859b6d642942c2c404cb71881065780ef3008613e8057269c0a8576964736f6c634300080a0033",
  "immutableReferences": {},
  "source": "//SPDX-License-Identifier: Unlicense\npragma solidity ^0.8.0;\n\n\ncontract TestContractNewestUpdated {\n    // this is just a contract that has not yet been exported\n\n    function anArr(uint[] memory first)\n    public {}\n\n    function twoArrs(uint[] memory first, uint[] memory second)\n    public {}\n\n    function addressArr(address[] memory first)\n    public {}\n\n    function nestedArr0(uint[][] memory first)\n    public {}\n\n    function nestedArr1(uint[][5] memory first)\n    public {}\n\n    function nestedArr2(uint[4][] memory first)\n    public {}\n\n    function nestedArr3(uint[3][3] memory first)\n    public {}\n\n    function nestedArr4(uint[3][3] memory first,\n        string memory _bundleHash)\n    public {}\n\n    struct Person{\n        string name;\n        uint age;\n        Addr addr;\n    }\n\n    struct Addr{\n        string street;\n        uint number;\n        string town;\n    }\n\n    struct AddressPerson{\n        string name;\n        uint age;\n        Addr[] addrs;\n    }\n\n    function structTest1 (\n        Person[] memory people,\n        bool test_bool\n        )\n    public {}\n\n    function structTest2 (\n        Person memory person,\n        bool test_bool\n        )\n    public {}\n\n    function structTest3 (\n        AddressPerson memory person,\n        string memory _bundleHash\n        )\n    public {}\n\n    function structTest4 (\n        AddressPerson[] memory persons,\n        string memory _bundleHash\n        )\n    public {}\n\n    function structTest5 (\n        Person memory person,\n        string memory _bundleHash\n        )\n    public {}\n\n    function nowT()\n    public {}\n\n    function clientContainer (\n        Person memory person,\n        string memory _bundleHash,\n        string memory _bundlePath\n        )\n    public {}\n\n}",
  "sourcePath": "/Users/brendanbirch/development/simba/sep/truffle/tests/contracts/TestContractNewestUpdated.sol",
  "compiler": {
    "name": "solc",
    "version": "0.8.10+commit.fc410830.Emscripten.clang"
  },
  "schemaVersion": "3.4.8",
  "updatedAt": "2023-03-16T16:13:25.773Z",
  "devdoc": {
    "kind": "dev",
    "methods": {},
    "version": 1
  },
  "userdoc": {
    "kind": "user",
    "methods": {},
    "version": 1
  }
}