{
  "contractName": "TestContractVT20",
  "abi": [
    {
      "inputs": [
        {
          "internalType": "uint256",
          "name": "_ourNum",
          "type": "uint256"
        },
        {
          "internalType": "string",
          "name": "_ourString",
          "type": "string"
        }
      ],
      "stateMutability": "nonpayable",
      "type": "constructor"
    },
    {
      "inputs": [],
      "name": "getNum",
      "outputs": [
        {
          "internalType": "uint256",
          "name": "",
          "type": "uint256"
        }
      ],
      "stateMutability": "view",
      "type": "function"
    },
    {
      "inputs": [
        {
          "internalType": "uint256",
          "name": "_ourNum",
          "type": "uint256"
        }
      ],
      "name": "setNum",
      "outputs": [],
      "stateMutability": "nonpayable",
      "type": "function"
    },
    {
      "inputs": [],
      "name": "getString",
      "outputs": [
        {
          "internalType": "string",
          "name": "",
          "type": "string"
        }
      ],
      "stateMutability": "view",
      "type": "function"
    },
    {
      "inputs": [
        {
          "internalType": "string",
          "name": "_ourString",
          "type": "string"
        }
      ],
      "name": "setString",
      "outputs": [],
      "stateMutability": "nonpayable",
      "type": "function"
    },
    {
      "inputs": [
        {
          "internalType": "uint256[]",
          "name": "first",
          "type": "uint256[]"
        }
      ],
      "name": "anArr",
      "outputs": [],
      "stateMutability": "nonpayable",
      "type": "function"
    },
    {
      "inputs": [
        {
          "internalType": "uint256[]",
          "name": "first",
          "type": "uint256[]"
        },
        {
          "internalType": "uint256[]",
          "name": "second",
          "type": "uint256[]"
        }
      ],
      "name": "twoArrs",
      "outputs": [],
      "stateMutability": "nonpayable",
      "type": "function"
    },
    {
      "inputs": [
        {
          "internalType": "address[]",
          "name": "first",
          "type": "address[]"
        }
      ],
      "name": "addressArr",
      "outputs": [],
      "stateMutability": "nonpayable",
      "type": "function"
    },
    {
      "inputs": [
        {
          "internalType": "uint256[][]",
          "name": "first",
          "type": "uint256[][]"
        }
      ],
      "name": "nestedArr0",
      "outputs": [],
      "stateMutability": "nonpayable",
      "type": "function"
    },
    {
      "inputs": [
        {
          "internalType": "uint256[][5]",
          "name": "first",
          "type": "uint256[][5]"
        }
      ],
      "name": "nestedArr1",
      "outputs": [],
      "stateMutability": "nonpayable",
      "type": "function"
    },
    {
      "inputs": [
        {
          "internalType": "uint256[4][]",
          "name": "first",
          "type": "uint256[4][]"
        }
      ],
      "name": "nestedArr2",
      "outputs": [],
      "stateMutability": "nonpayable",
      "type": "function"
    },
    {
      "inputs": [
        {
          "internalType": "uint256[3][3]",
          "name": "first",
          "type": "uint256[3][3]"
        }
      ],
      "name": "nestedArr3",
      "outputs": [],
      "stateMutability": "nonpayable",
      "type": "function"
    },
    {
      "inputs": [
        {
          "internalType": "uint256[3][3]",
          "name": "first",
          "type": "uint256[3][3]"
        },
        {
          "internalType": "string",
          "name": "_bundleHash",
          "type": "string"
        }
      ],
      "name": "nestedArr4",
      "outputs": [],
      "stateMutability": "nonpayable",
      "type": "function"
    },
    {
      "inputs": [
        {
          "components": [
            {
              "internalType": "string",
              "name": "name",
              "type": "string"
            },
            {
              "internalType": "uint256",
              "name": "age",
              "type": "uint256"
            },
            {
              "components": [
                {
                  "internalType": "string",
                  "name": "street",
                  "type": "string"
                },
                {
                  "internalType": "uint256",
                  "name": "number",
                  "type": "uint256"
                },
                {
                  "internalType": "string",
                  "name": "town",
                  "type": "string"
                }
              ],
              "internalType": "struct TestContractVT20.Addr",
              "name": "addr",
              "type": "tuple"
            }
          ],
          "internalType": "struct TestContractVT20.Person[]",
          "name": "people",
          "type": "tuple[]"
        },
        {
          "internalType": "bool",
          "name": "test_bool",
          "type": "bool"
        }
      ],
      "name": "structTest1",
      "outputs": [],
      "stateMutability": "nonpayable",
      "type": "function"
    },
    {
      "inputs": [
        {
          "components": [
            {
              "internalType": "string",
              "name": "name",
              "type": "string"
            },
            {
              "internalType": "uint256",
              "name": "age",
              "type": "uint256"
            },
            {
              "components": [
                {
                  "internalType": "string",
                  "name": "street",
                  "type": "string"
                },
                {
                  "internalType": "uint256",
                  "name": "number",
                  "type": "uint256"
                },
                {
                  "internalType": "string",
                  "name": "town",
                  "type": "string"
                }
              ],
              "internalType": "struct TestContractVT20.Addr",
              "name": "addr",
              "type": "tuple"
            }
          ],
          "internalType": "struct TestContractVT20.Person",
          "name": "person",
          "type": "tuple"
        },
        {
          "internalType": "bool",
          "name": "test_bool",
          "type": "bool"
        }
      ],
      "name": "structTest2",
      "outputs": [],
      "stateMutability": "nonpayable",
      "type": "function"
    },
    {
      "inputs": [
        {
          "components": [
            {
              "internalType": "string",
              "name": "name",
              "type": "string"
            },
            {
              "internalType": "uint256",
              "name": "age",
              "type": "uint256"
            },
            {
              "components": [
                {
                  "internalType": "string",
                  "name": "street",
                  "type": "string"
                },
                {
                  "internalType": "uint256",
                  "name": "number",
                  "type": "uint256"
                },
                {
                  "internalType": "string",
                  "name": "town",
                  "type": "string"
                }
              ],
              "internalType": "struct TestContractVT20.Addr[]",
              "name": "addrs",
              "type": "tuple[]"
            }
          ],
          "internalType": "struct TestContractVT20.AddressPerson",
          "name": "person",
          "type": "tuple"
        },
        {
          "internalType": "string",
          "name": "_bundleHash",
          "type": "string"
        }
      ],
      "name": "structTest3",
      "outputs": [],
      "stateMutability": "nonpayable",
      "type": "function"
    },
    {
      "inputs": [
        {
          "components": [
            {
              "internalType": "string",
              "name": "name",
              "type": "string"
            },
            {
              "internalType": "uint256",
              "name": "age",
              "type": "uint256"
            },
            {
              "components": [
                {
                  "internalType": "string",
                  "name": "street",
                  "type": "string"
                },
                {
                  "internalType": "uint256",
                  "name": "number",
                  "type": "uint256"
                },
                {
                  "internalType": "string",
                  "name": "town",
                  "type": "string"
                }
              ],
              "internalType": "struct TestContractVT20.Addr[]",
              "name": "addrs",
              "type": "tuple[]"
            }
          ],
          "internalType": "struct TestContractVT20.AddressPerson[]",
          "name": "persons",
          "type": "tuple[]"
        },
        {
          "internalType": "string",
          "name": "_bundleHash",
          "type": "string"
        }
      ],
      "name": "structTest4",
      "outputs": [],
      "stateMutability": "nonpayable",
      "type": "function"
    },
    {
      "inputs": [
        {
          "components": [
            {
              "internalType": "string",
              "name": "name",
              "type": "string"
            },
            {
              "internalType": "uint256",
              "name": "age",
              "type": "uint256"
            },
            {
              "components": [
                {
                  "internalType": "string",
                  "name": "street",
                  "type": "string"
                },
                {
                  "internalType": "uint256",
                  "name": "number",
                  "type": "uint256"
                },
                {
                  "internalType": "string",
                  "name": "town",
                  "type": "string"
                }
              ],
              "internalType": "struct TestContractVT20.Addr",
              "name": "addr",
              "type": "tuple"
            }
          ],
          "internalType": "struct TestContractVT20.Person",
          "name": "person",
          "type": "tuple"
        },
        {
          "internalType": "string",
          "name": "_bundleHash",
          "type": "string"
        }
      ],
      "name": "structTest5",
      "outputs": [],
      "stateMutability": "nonpayable",
      "type": "function"
    },
    {
      "inputs": [],
      "name": "nowT",
      "outputs": [],
      "stateMutability": "nonpayable",
      "type": "function"
    },
    {
      "inputs": [
        {
          "components": [
            {
              "internalType": "string",
              "name": "name",
              "type": "string"
            },
            {
              "internalType": "uint256",
              "name": "age",
              "type": "uint256"
            },
            {
              "components": [
                {
                  "internalType": "string",
                  "name": "street",
                  "type": "string"
                },
                {
                  "internalType": "uint256",
                  "name": "number",
                  "type": "uint256"
                },
                {
                  "internalType": "string",
                  "name": "town",
                  "type": "string"
                }
              ],
              "internalType": "struct TestContractVT20.Addr",
              "name": "addr",
              "type": "tuple"
            }
          ],
          "internalType": "struct TestContractVT20.Person",
          "name": "person",
          "type": "tuple"
        },
        {
          "internalType": "string",
          "name": "_bundleHash",
          "type": "string"
        },
        {
          "internalType": "string",
          "name": "_bundlePath",
          "type": "string"
        }
      ],
      "name": "clientContainer",
      "outputs": [],
      "stateMutability": "nonpayable",
      "type": "function"
    }
  ],
  "bytecode": "0x60806040523480156200001157600080fd5b5060405162001c5638038062001c568339818101604052810190620000379190620002e7565b816000819055508060019080519060200190620000569291906200005f565b505050620003b2565b8280546200006d906200037c565b90600052602060002090601f016020900481019282620000915760008555620000dd565b82601f10620000ac57805160ff1916838001178555620000dd565b82800160010185558215620000dd579182015b82811115620000dc578251825591602001919060010190620000bf565b5b509050620000ec9190620000f0565b5090565b5b808211156200010b576000816000905550600101620000f1565b5090565b6000604051905090565b600080fd5b600080fd5b6000819050919050565b620001388162000123565b81146200014457600080fd5b50565b60008151905062000158816200012d565b92915050565b600080fd5b600080fd5b6000601f19601f8301169050919050565b7f4e487b7100000000000000000000000000000000000000000000000000000000600052604160045260246000fd5b620001b38262000168565b810181811067ffffffffffffffff82111715620001d557620001d462000179565b5b80604052505050565b6000620001ea6200010f565b9050620001f88282620001a8565b919050565b600067ffffffffffffffff8211156200021b576200021a62000179565b5b620002268262000168565b9050602081019050919050565b60005b838110156200025357808201518184015260208101905062000236565b8381111562000263576000848401525b50505050565b6000620002806200027a84620001fd565b620001de565b9050828152602081018484840111156200029f576200029e62000163565b5b620002ac84828562000233565b509392505050565b600082601f830112620002cc57620002cb6200015e565b5b8151620002de84826020860162000269565b91505092915050565b6000806040838503121562000301576200030062000119565b5b6000620003118582860162000147565b925050602083015167ffffffffffffffff8111156200033557620003346200011e565b5b6200034385828601620002b4565b9150509250929050565b7f4e487b7100000000000000000000000000000000000000000000000000000000600052602260045260246000fd5b600060028204905060018216806200039557607f821691505b60208210811415620003ac57620003ab6200034d565b5b50919050565b61189480620003c26000396000f3fe608060405234801561001057600080fd5b50600436106101215760003560e01c806389ea642f116100ad578063d312a9d811610071578063d312a9d8146102a0578063db3ebcf9146102bc578063e1bce28c146102d8578063fc05f18b146102f4578063ff9f51ad1461031057610121565b806389ea642f14610212578063a061b36914610230578063ba28a2a81461024c578063cd16ecbf14610268578063cd9d4f101461028457610121565b806342e9591d116100f457806342e9591d1461018457806347fb8c0a146101a057806367e0badb146101bc5780636b1a62f0146101da5780637fcaf666146101f657610121565b80632175067f1461012657806326e9a645146101305780633ed622fb1461014c5780634243fe5c14610168575b600080fd5b61012e61032c565b005b61014a6004803603810190610145919061087b565b61032e565b005b61016660048036038101906101619190610a55565b610332565b005b610182600480360381019061017d9190610a83565b610335565b005b61019e60048036038101906101999190610bc2565b610339565b005b6101ba60048036038101906101b59190610cd6565b61033d565b005b6101c4610341565b6040516101d19190610d5d565b60405180910390f35b6101f460048036038101906101ef9190610e3b565b61034a565b005b610210600480360381019061020b9190610e84565b61034d565b005b61021a610367565b6040516102279190610f55565b60405180910390f35b61024a60048036038101906102459190611098565b6103f9565b005b610266600480360381019061026191906111c2565b6103fc565b005b610282600480360381019061027d919061120b565b6103ff565b005b61029e600480360381019061029991906113ac565b610409565b005b6102ba60048036038101906102b5919061142d565b61040c565b005b6102d660048036038101906102d19190611489565b610410565b005b6102f260048036038101906102ed9190611611565b610415565b005b61030e6004803603810190610309919061166d565b610419565b005b61032a600480360381019061032591906117b4565b61041d565b005b565b5050565b50565b5050565b5050565b5050565b60008054905090565b50565b8060019080519060200190610363929190610420565b5050565b6060600180546103769061182c565b80601f01602080910402602001604051908101604052809291908181526020018280546103a29061182c565b80156103ef5780601f106103c4576101008083540402835291602001916103ef565b820191906000526020600020905b8154815290600101906020018083116103d257829003601f168201915b5050505050905090565b50565b50565b8060008190555050565b50565b5050565b505050565b5050565b5050565b50565b82805461042c9061182c565b90600052602060002090601f01602090048101928261044e5760008555610495565b82601f1061046757805160ff1916838001178555610495565b82800160010185558215610495579182015b82811115610494578251825591602001919060010190610479565b5b5090506104a291906104a6565b5090565b5b808211156104bf5760008160009055506001016104a7565b5090565b6000604051905090565b600080fd5b600080fd5b600080fd5b6000601f19601f8301169050919050565b7f4e487b7100000000000000000000000000000000000000000000000000000000600052604160045260246000fd5b610525826104dc565b810181811067ffffffffffffffff82111715610544576105436104ed565b5b80604052505050565b60006105576104c3565b9050610563828261051c565b919050565b600080fd5b600080fd5b600080fd5b600067ffffffffffffffff821115610592576105916104ed565b5b61059b826104dc565b9050602081019050919050565b82818337600083830152505050565b60006105ca6105c584610577565b61054d565b9050828152602081018484840111156105e6576105e5610572565b5b6105f18482856105a8565b509392505050565b600082601f83011261060e5761060d61056d565b5b813561061e8482602086016105b7565b91505092915050565b6000819050919050565b61063a81610627565b811461064557600080fd5b50565b60008135905061065781610631565b92915050565b600067ffffffffffffffff821115610678576106776104ed565b5b602082029050602081019050919050565b600080fd5b6000606082840312156106a4576106a36104d7565b5b6106ae606061054d565b9050600082013567ffffffffffffffff8111156106ce576106cd610568565b5b6106da848285016105f9565b60008301525060206106ee84828501610648565b602083015250604082013567ffffffffffffffff81111561071257610711610568565b5b61071e848285016105f9565b60408301525092915050565b600061073d6107388461065d565b61054d565b905080838252602082019050602084028301858111156107605761075f610689565b5b835b818110156107a757803567ffffffffffffffff8111156107855761078461056d565b5b808601610792898261068e565b85526020850194505050602081019050610762565b5050509392505050565b600082601f8301126107c6576107c561056d565b5b81356107d684826020860161072a565b91505092915050565b6000606082840312156107f5576107f46104d7565b5b6107ff606061054d565b9050600082013567ffffffffffffffff81111561081f5761081e610568565b5b61082b848285016105f9565b600083015250602061083f84828501610648565b602083015250604082013567ffffffffffffffff81111561086357610862610568565b5b61086f848285016107b1565b60408301525092915050565b60008060408385031215610892576108916104cd565b5b600083013567ffffffffffffffff8111156108b0576108af6104d2565b5b6108bc858286016107df565b925050602083013567ffffffffffffffff8111156108dd576108dc6104d2565b5b6108e9858286016105f9565b9150509250929050565b600067ffffffffffffffff82111561090e5761090d6104ed565b5b602082029050919050565b600067ffffffffffffffff821115610934576109336104ed565b5b602082029050919050565b600061095261094d84610919565b61054d565b9050806020840283018581111561096c5761096b610689565b5b835b8181101561099557806109818882610648565b84526020840193505060208101905061096e565b5050509392505050565b600082601f8301126109b4576109b361056d565b5b60036109c184828561093f565b91505092915050565b60006109dd6109d8846108f3565b61054d565b905080606084028301858111156109f7576109f6610689565b5b835b81811015610a205780610a0c888261099f565b8452602084019350506060810190506109f9565b5050509392505050565b600082601f830112610a3f57610a3e61056d565b5b6003610a4c8482856109ca565b91505092915050565b60006101208284031215610a6c57610a6b6104cd565b5b6000610a7a84828501610a2a565b91505092915050565b6000806101408385031215610a9b57610a9a6104cd565b5b6000610aa985828601610a2a565b92505061012083013567ffffffffffffffff811115610acb57610aca6104d2565b5b610ad7858286016105f9565b9150509250929050565b600067ffffffffffffffff821115610afc57610afb6104ed565b5b602082029050602081019050919050565b6000610b20610b1b84610ae1565b61054d565b90508083825260208201905060208402830185811115610b4357610b42610689565b5b835b81811015610b8a57803567ffffffffffffffff811115610b6857610b6761056d565b5b808601610b7589826107df565b85526020850194505050602081019050610b45565b5050509392505050565b600082601f830112610ba957610ba861056d565b5b8135610bb9848260208601610b0d565b91505092915050565b60008060408385031215610bd957610bd86104cd565b5b600083013567ffffffffffffffff811115610bf757610bf66104d2565b5b610c0385828601610b94565b925050602083013567ffffffffffffffff811115610c2457610c236104d2565b5b610c30858286016105f9565b9150509250929050565b600060608284031215610c5057610c4f6104d7565b5b610c5a606061054d565b9050600082013567ffffffffffffffff811115610c7a57610c79610568565b5b610c86848285016105f9565b6000830152506020610c9a84828501610648565b602083015250604082013567ffffffffffffffff811115610cbe57610cbd610568565b5b610cca8482850161068e565b60408301525092915050565b60008060408385031215610ced57610cec6104cd565b5b600083013567ffffffffffffffff811115610d0b57610d0a6104d2565b5b610d1785828601610c3a565b925050602083013567ffffffffffffffff811115610d3857610d376104d2565b5b610d44858286016105f9565b9150509250929050565b610d5781610627565b82525050565b6000602082019050610d726000830184610d4e565b92915050565b600067ffffffffffffffff821115610d9357610d926104ed565b5b602082029050602081019050919050565b6000610db7610db284610d78565b61054d565b90508083825260208201905060208402830185811115610dda57610dd9610689565b5b835b81811015610e035780610def8882610648565b845260208401935050602081019050610ddc565b5050509392505050565b600082601f830112610e2257610e2161056d565b5b8135610e32848260208601610da4565b91505092915050565b600060208284031215610e5157610e506104cd565b5b600082013567ffffffffffffffff811115610e6f57610e6e6104d2565b5b610e7b84828501610e0d565b91505092915050565b600060208284031215610e9a57610e996104cd565b5b600082013567ffffffffffffffff811115610eb857610eb76104d2565b5b610ec4848285016105f9565b91505092915050565b600081519050919050565b600082825260208201905092915050565b60005b83811015610f07578082015181840152602081019050610eec565b83811115610f16576000848401525b50505050565b6000610f2782610ecd565b610f318185610ed8565b9350610f41818560208601610ee9565b610f4a816104dc565b840191505092915050565b60006020820190508181036000830152610f6f8184610f1c565b905092915050565b600067ffffffffffffffff821115610f9257610f916104ed565b5b602082029050602081019050919050565b600073ffffffffffffffffffffffffffffffffffffffff82169050919050565b6000610fce82610fa3565b9050919050565b610fde81610fc3565b8114610fe957600080fd5b50565b600081359050610ffb81610fd5565b92915050565b600061101461100f84610f77565b61054d565b9050808382526020820190506020840283018581111561103757611036610689565b5b835b81811015611060578061104c8882610fec565b845260208401935050602081019050611039565b5050509392505050565b600082601f83011261107f5761107e61056d565b5b813561108f848260208601611001565b91505092915050565b6000602082840312156110ae576110ad6104cd565b5b600082013567ffffffffffffffff8111156110cc576110cb6104d2565b5b6110d88482850161106a565b91505092915050565b600067ffffffffffffffff8211156110fc576110fb6104ed565b5b602082029050602081019050919050565b600061112061111b846110e1565b61054d565b9050808382526020820190506020840283018581111561114357611142610689565b5b835b8181101561118a57803567ffffffffffffffff8111156111685761116761056d565b5b8086016111758982610e0d565b85526020850194505050602081019050611145565b5050509392505050565b600082601f8301126111a9576111a861056d565b5b81356111b984826020860161110d565b91505092915050565b6000602082840312156111d8576111d76104cd565b5b600082013567ffffffffffffffff8111156111f6576111f56104d2565b5b61120284828501611194565b91505092915050565b600060208284031215611221576112206104cd565b5b600061122f84828501610648565b91505092915050565b600067ffffffffffffffff821115611253576112526104ed565b5b602082029050602081019050919050565b600067ffffffffffffffff82111561127f5761127e6104ed565b5b602082029050919050565b600061129d61129884611264565b61054d565b905080602084028301858111156112b7576112b6610689565b5b835b818110156112e057806112cc8882610648565b8452602084019350506020810190506112b9565b5050509392505050565b600082601f8301126112ff576112fe61056d565b5b600461130c84828561128a565b91505092915050565b600061132861132384611238565b61054d565b9050808382526020820190506080840283018581111561134b5761134a610689565b5b835b81811015611374578061136088826112ea565b84526020840193505060808101905061134d565b5050509392505050565b600082601f8301126113935761139261056d565b5b81356113a3848260208601611315565b91505092915050565b6000602082840312156113c2576113c16104cd565b5b600082013567ffffffffffffffff8111156113e0576113df6104d2565b5b6113ec8482850161137e565b91505092915050565b60008115159050919050565b61140a816113f5565b811461141557600080fd5b50565b60008135905061142781611401565b92915050565b60008060408385031215611444576114436104cd565b5b600083013567ffffffffffffffff811115611462576114616104d2565b5b61146e85828601610c3a565b925050602061147f85828601611418565b9150509250929050565b6000806000606084860312156114a2576114a16104cd565b5b600084013567ffffffffffffffff8111156114c0576114bf6104d2565b5b6114cc86828701610c3a565b935050602084013567ffffffffffffffff8111156114ed576114ec6104d2565b5b6114f9868287016105f9565b925050604084013567ffffffffffffffff81111561151a576115196104d2565b5b611526868287016105f9565b9150509250925092565b600067ffffffffffffffff82111561154b5761154a6104ed565b5b602082029050602081019050919050565b600061156f61156a84611530565b61054d565b9050808382526020820190506020840283018581111561159257611591610689565b5b835b818110156115d957803567ffffffffffffffff8111156115b7576115b661056d565b5b8086016115c48982610c3a565b85526020850194505050602081019050611594565b5050509392505050565b600082601f8301126115f8576115f761056d565b5b813561160884826020860161155c565b91505092915050565b60008060408385031215611628576116276104cd565b5b600083013567ffffffffffffffff811115611646576116456104d2565b5b611652858286016115e3565b925050602061166385828601611418565b9150509250929050565b60008060408385031215611684576116836104cd565b5b600083013567ffffffffffffffff8111156116a2576116a16104d2565b5b6116ae85828601610e0d565b925050602083013567ffffffffffffffff8111156116cf576116ce6104d2565b5b6116db85828601610e0d565b9150509250929050565b600067ffffffffffffffff821115611700576116ff6104ed565b5b602082029050919050565b600061171e611719846116e5565b61054d565b9050806020840283018581111561173857611737610689565b5b835b8181101561177f57803567ffffffffffffffff81111561175d5761175c61056d565b5b80860161176a8982610e0d565b8552602085019450505060208101905061173a565b5050509392505050565b600082601f83011261179e5761179d61056d565b5b60056117ab84828561170b565b91505092915050565b6000602082840312156117ca576117c96104cd565b5b600082013567ffffffffffffffff8111156117e8576117e76104d2565b5b6117f484828501611789565b91505092915050565b7f4e487b7100000000000000000000000000000000000000000000000000000000600052602260045260246000fd5b6000600282049050600182168061184457607f821691505b60208210811415611858576118576117fd565b5b5091905056fea264697066735822122004d0c8e5220cf58dce646f9ad9200965d638b14f9e561a29dfe1263113e0be5864736f6c634300080a0033",
  "immutableReferences": {},
  "source": "//SPDX-License-Identifier: Unlicense\npragma solidity ^0.8.0;\n\n\ncontract TestContractVT20 {\n    uint private ourNum;\n    string private ourString;\n\n    constructor(uint _ourNum, string memory _ourString) {\n        ourNum = _ourNum;\n        ourString = _ourString;\n    }\n\n    function getNum() public view returns (uint) {\n        return ourNum;\n    }\n\n    function setNum(uint _ourNum) public {\n        ourNum = _ourNum;\n    }\n\n    function getString() public view returns (string memory) {\n        return ourString;\n    }\n\n    function setString(string memory _ourString) public {\n        ourString = _ourString;\n    }\n\n    function anArr(uint[] memory first)\n    public {}\n\n    function twoArrs(uint[] memory first, uint[] memory second)\n    public {}\n\n    function addressArr(address[] memory first)\n    public {}\n\n    function nestedArr0(uint[][] memory first)\n    public {}\n\n    function nestedArr1(uint[][5] memory first)\n    public {}\n\n    function nestedArr2(uint[4][] memory first)\n    public {}\n\n    function nestedArr3(uint[3][3] memory first)\n    public {}\n\n    function nestedArr4(uint[3][3] memory first,\n        string memory _bundleHash)\n    public {}\n\n    struct Person{\n        string name;\n        uint age;\n        Addr addr;\n    }\n\n    struct Addr{\n        string street;\n        uint number;\n        string town;\n    }\n\n    struct AddressPerson{\n        string name;\n        uint age;\n        Addr[] addrs;\n    }\n\n    function structTest1 (\n        Person[] memory people,\n        bool test_bool\n        )\n    public {}\n\n    function structTest2 (\n        Person memory person,\n        bool test_bool\n        )\n    public {}\n\n    function structTest3 (\n        AddressPerson memory person,\n        string memory _bundleHash\n        )\n    public {}\n\n    function structTest4 (\n        AddressPerson[] memory persons,\n        string memory _bundleHash\n        )\n    public {}\n\n    function structTest5 (\n        Person memory person,\n        string memory _bundleHash\n        )\n    public {}\n\n    function nowT()\n    public {}\n\n    function clientContainer (\n        Person memory person,\n        string memory _bundleHash,\n        string memory _bundlePath\n        )\n    public {}\n\n}",
  "sourcePath": "/Users/brendanbirch/development/truffle/demo_env_project/contracts/TestContractVT20.sol",
  "compiler": {
    "name": "solc",
    "version": "0.8.10+commit.fc410830.Emscripten.clang"
  },
  "schemaVersion": "3.4.4",
  "updatedAt": "2022-08-25T23:09:27.980Z",
  "devdoc": {
    "kind": "dev",
    "methods": {},
    "version": 1
  },
  "userdoc": {
    "kind": "user",
    "methods": {},
    "version": 1
  }
}